{
  "address": "0xe41279A05f3eEc58acDB7Df13De3148db912DFD5",
  "abi": [
    {
      "inputs": [
        {
          "internalType": "address",
          "name": "_brevisRequest",
          "type": "address"
        }
      ],
      "stateMutability": "nonpayable",
      "type": "constructor"
    },
    {
      "inputs": [
        {
          "internalType": "address",
          "name": "owner",
          "type": "address"
        }
      ],
      "name": "OwnableInvalidOwner",
      "type": "error"
    },
    {
      "inputs": [
        {
          "internalType": "address",
          "name": "account",
          "type": "address"
        }
      ],
      "name": "OwnableUnauthorizedAccount",
      "type": "error"
    },
    {
      "anonymous": false,
      "inputs": [
        {
          "indexed": true,
          "internalType": "address",
          "name": "previousOwner",
          "type": "address"
        },
        {
          "indexed": true,
          "internalType": "address",
          "name": "newOwner",
          "type": "address"
        }
      ],
      "name": "OwnershipTransferred",
      "type": "event"
    },
    {
      "anonymous": false,
      "inputs": [
        {
          "indexed": false,
          "internalType": "uint64",
          "name": "blockNum",
          "type": "uint64"
        },
        {
          "indexed": false,
          "internalType": "address",
          "name": "account",
          "type": "address"
        },
        {
          "indexed": false,
          "internalType": "uint256",
          "name": "assetValue",
          "type": "uint256"
        },
        {
          "indexed": false,
          "internalType": "uint256",
          "name": "zakatAmount",
          "type": "uint256"
        }
      ],
      "name": "ZakatVerified",
      "type": "event"
    },
    {
      "inputs": [
        {
          "internalType": "bytes32[]",
          "name": "_appVkHashes",
          "type": "bytes32[]"
        },
        {
          "internalType": "bytes[]",
          "name": "_appCircuitOutputs",
          "type": "bytes[]"
        }
      ],
      "name": "brevisBatchCallback",
      "outputs": [],
      "stateMutability": "nonpayable",
      "type": "function"
    },
    {
      "inputs": [
        {
          "internalType": "bytes32",
          "name": "_appVkHash",
          "type": "bytes32"
        },
        {
          "internalType": "bytes",
          "name": "_appCircuitOutput",
          "type": "bytes"
        }
      ],
      "name": "brevisCallback",
      "outputs": [],
      "stateMutability": "nonpayable",
      "type": "function"
    },
    {
      "inputs": [],
      "name": "brevisRequest",
      "outputs": [
        {
          "internalType": "address",
          "name": "",
          "type": "address"
        }
      ],
      "stateMutability": "view",
      "type": "function"
    },
    {
      "inputs": [],
      "name": "contributeZakat",
      "outputs": [],
      "stateMutability": "payable",
      "type": "function"
    },
    {
      "inputs": [
        {
          "internalType": "address[]",
          "name": "charities",
          "type": "address[]"
        },
        {
          "internalType": "uint256[]",
          "name": "amounts",
          "type": "uint256[]"
        }
      ],
      "name": "distributeZakat",
      "outputs": [],
      "stateMutability": "nonpayable",
      "type": "function"
    },
    {
      "inputs": [
        {
          "internalType": "address",
          "name": "",
          "type": "address"
        }
      ],
      "name": "lastVerifiedAssets",
      "outputs": [
        {
          "internalType": "uint256",
          "name": "",
          "type": "uint256"
        }
      ],
      "stateMutability": "view",
      "type": "function"
    },
    {
      "inputs": [],
      "name": "owner",
      "outputs": [
        {
          "internalType": "address",
          "name": "",
          "type": "address"
        }
      ],
      "stateMutability": "view",
      "type": "function"
    },
    {
      "inputs": [],
      "name": "renounceOwnership",
      "outputs": [],
      "stateMutability": "nonpayable",
      "type": "function"
    },
    {
      "inputs": [
        {
          "internalType": "bytes32",
          "name": "_vkHash",
          "type": "bytes32"
        }
      ],
      "name": "setVkHash",
      "outputs": [],
      "stateMutability": "nonpayable",
      "type": "function"
    },
    {
      "inputs": [
        {
          "internalType": "address",
          "name": "newOwner",
          "type": "address"
        }
      ],
      "name": "transferOwnership",
      "outputs": [],
      "stateMutability": "nonpayable",
      "type": "function"
    },
    {
      "inputs": [],
      "name": "vkHash",
      "outputs": [
        {
          "internalType": "bytes32",
          "name": "",
          "type": "bytes32"
        }
      ],
      "stateMutability": "view",
      "type": "function"
    },
    {
      "inputs": [
        {
          "internalType": "address",
          "name": "",
          "type": "address"
        }
      ],
      "name": "zakatContributions",
      "outputs": [
        {
          "internalType": "uint256",
          "name": "",
          "type": "uint256"
        }
      ],
      "stateMutability": "view",
      "type": "function"
    },
    {
      "stateMutability": "payable",
      "type": "receive"
    }
  ],
  "transactionHash": "0x41658daf1582ff6dd0a265973027910528cb478807cadd31ae3f2801e09127d3",
  "args": [
    "0xa082F86d9d1660C29cf3f962A31d7D20E367154F"
  ],
  "numDeployments": 1,
  "solcInputHash": "3254d8dea7fd269d7e540f524e5cc342",
  "bytecode": "0x6080346100cb57601f6109c338819003918201601f19168301916001600160401b038311848410176100d0578084926020946040528339810103126100cb57516001600160a01b0390818116908190036100cb57600080546001600160a01b0319908116909217905533156100b257600154903390821617600155604051913391167f8be0079c531659141344cd1fd0a4f28419497f9722a3daafe3b4186f6b6457e0600080a36108dc90816100e78239f35b604051631e4fbdf760e01b815260006004820152602490fd5b600080fd5b634e487b7160e01b600052604160045260246000fdfe60806040818152600480361015610021575b505050361561001f57600080fd5b005b600092833560e01c90816338931a3114610656575080633bca02fc146105a35780634fe840f5146105845780635522e27e1461054c578063715018a6146104e15780637859f6d9146104bf57806379d6b6a2146104515780638c704f58146103925780638da5cb5b1461036a5780639793ef601461032e578063f2fde38b146102935763f4f3811c03610011573461028f576100bc366106af565b90916100c99593956106fa565b81810361024c5786875b838110610227575047106101e457865b8181106100ee578780f35b876100fa82848a610758565b356001600160a01b03811681036101e0578180809261011a86898b610758565b35905af13d156101db5767ffffffffffffffff3d8181116101c857875191601f8201601f19908116603f01168301908111838210176101b557885281528960203d92013e5b156101725761016d90610749565b6100e3565b845162461bcd60e51b8152602081880152600f60248201527f5472616e73666572206661696c656400000000000000000000000000000000006044820152606490fd5b634e487b7160e01b8c5260418a5260248cfd5b634e487b7160e01b8b526041895260248bfd5b61015f565b5080fd5b835162461bcd60e51b8152602081870152601460248201527f496e73756666696369656e742062616c616e63650000000000000000000000006044820152606490fd5b906102416102479161023a848789610758565b3590610726565b91610749565b6100d3565b835162461bcd60e51b8152602081870152601160248201527f417272617973206d757374206d617463680000000000000000000000000000006044820152606490fd5b8280fd5b50903461028f57602036600319011261028f578135916001600160a01b039182841680940361032a576102c46106fa565b83156103145750506001548273ffffffffffffffffffffffffffffffffffffffff19821617600155167f8be0079c531659141344cd1fd0a4f28419497f9722a3daafe3b4186f6b6457e08380a380f35b51631e4fbdf760e01b8152908101849052602490fd5b8480fd5b503461028f57602036600319011261028f5780356001600160a01b038116809103610366579282916020948252845220549051908152f35b8380fd5b5050346101e057816003193601126101e0576020906001600160a01b03600154169051908152f35b508260031936011261028f573383526003602052818320541561040f5734156103cd5733835260205281206103c8348254610726565b905580f35b6020606492519162461bcd60e51b8352820152601960248201527f4d75737420636f6e7472696275746520736f6d657468696e67000000000000006044820152fd5b6020606492519162461bcd60e51b8352820152601360248201527f417373657473206e6f74207665726966696564000000000000000000000000006044820152fd5b50903461028f573660031901126101e0576024359067ffffffffffffffff90818311610366573660238401121561036657828101359182116103665736602483850101116103665760246104bc936104b46001600160a01b03875416331461077e565b0190356107ca565b80f35b8382346101e05760203660031901126101e0576104da6106fa565b3560025580f35b83346105495780600319360112610549576104fa6106fa565b806001600160a01b0360015473ffffffffffffffffffffffffffffffffffffffff198116600155167f8be0079c531659141344cd1fd0a4f28419497f9722a3daafe3b4186f6b6457e08280a380f35b80fd5b503461028f57602036600319011261028f57356001600160a01b03811680910361028f57828291602094526003845220549051908152f35b5050346101e057816003193601126101e0576020906002549051908152f35b8382346101e0576105b3366106af565b9390916105cb6001600160a01b03875416331461077e565b855b8181106105d8578680f35b6105e3818387610758565b359086811015610643578060051b850135601e198636030181121561063f5785019182359267ffffffffffffffff841161063b5760200192803603841361063b5761063693610631926107ca565b610749565b6105cd565b8980fd5b8880fd5b634e487b7160e01b885260328452602488fd5b8490346101e057816003193601126101e0576001600160a01b0360209254168152f35b9181601f840112156106aa5782359167ffffffffffffffff83116106aa576020808501948460051b0101116106aa57565b600080fd5b60406003198201126106aa5767ffffffffffffffff916004358381116106aa57826106dc91600401610679565b939093926024359182116106aa576106f691600401610679565b9091565b6001600160a01b0360015416330361070e57565b60405163118cdaa760e01b8152336004820152602490fd5b9190820180921161073357565b634e487b7160e01b600052601160045260246000fd5b60001981146107335760010190565b91908110156107685760051b0190565b634e487b7160e01b600052603260045260246000fd5b1561078557565b60405162461bcd60e51b815260206004820152600e60248201527f696e76616c69642063616c6c65720000000000000000000000000000000000006044820152606490fd5b6002540361086157816008116106aa5781601c116106aa57600881013560601c91603c116106aa57601c81013590601982029282840460191483151715610733577f54a3eec343082283e79365dda8a5da2d35a8b23480be7cb234ce905cd9ebc9e393608093826103e893600052600360205281604060002055604051943560c01c855260208501526040840152046060820152a1565b60405162461bcd60e51b815260206004820152600a60248201527f696e76616c696420766b000000000000000000000000000000000000000000006044820152606490fdfea26469706673582212204d8e23b89e9200fc3a0177058bfd1a8110b4c6dab07f09e9991225e49ec54ae464736f6c63430008140033",
  "devdoc": {
    "errors": {
      "OwnableInvalidOwner(address)": [
        {
          "details": "The owner is not a valid owner account. (eg. `address(0)`)"
        }
      ],
      "OwnableUnauthorizedAccount(address)": [
        {
          "details": "The caller account is not authorized to perform an operation."
        }
      ]
    },
    "kind": "dev",
    "methods": {
      "owner()": {
        "details": "Returns the address of the current owner."
      },
      "renounceOwnership()": {
        "details": "Leaves the contract without owner. It will not be possible to call `onlyOwner` functions. Can only be called by the current owner. NOTE: Renouncing ownership will leave the contract without an owner, thereby disabling any functionality that is only available to the owner."
      },
      "transferOwnership(address)": {
        "details": "Transfers ownership of the contract to a new account (`newOwner`). Can only be called by the current owner."
      }
    },
    "version": 1
  },
  "userdoc": {
    "kind": "user",
    "methods": {},
    "version": 1
  },
  "storageLayout": {
    "storage": [
      {
        "astId": 1111,
        "contract": "contracts/MuslimGoZakat.sol:MuslimGoZakat",
        "label": "brevisRequest",
        "offset": 0,
        "slot": "0",
        "type": "t_address"
      },
      {
        "astId": 8,
        "contract": "contracts/MuslimGoZakat.sol:MuslimGoZakat",
        "label": "_owner",
        "offset": 0,
        "slot": "1",
        "type": "t_address"
      },
      {
        "astId": 554,
        "contract": "contracts/MuslimGoZakat.sol:MuslimGoZakat",
        "label": "vkHash",
        "offset": 0,
        "slot": "2",
        "type": "t_bytes32"
      },
      {
        "astId": 558,
        "contract": "contracts/MuslimGoZakat.sol:MuslimGoZakat",
        "label": "lastVerifiedAssets",
        "offset": 0,
        "slot": "3",
        "type": "t_mapping(t_address,t_uint256)"
      },
      {
        "astId": 562,
        "contract": "contracts/MuslimGoZakat.sol:MuslimGoZakat",
        "label": "zakatContributions",
        "offset": 0,
        "slot": "4",
        "type": "t_mapping(t_address,t_uint256)"
      }
    ],
    "types": {
      "t_address": {
        "encoding": "inplace",
        "label": "address",
        "numberOfBytes": "20"
      },
      "t_bytes32": {
        "encoding": "inplace",
        "label": "bytes32",
        "numberOfBytes": "32"
      },
      "t_mapping(t_address,t_uint256)": {
        "encoding": "mapping",
        "key": "t_address",
        "label": "mapping(address => uint256)",
        "numberOfBytes": "32",
        "value": "t_uint256"
      },
      "t_uint256": {
        "encoding": "inplace",
        "label": "uint256",
        "numberOfBytes": "32"
      }
    }
  }
}